{
	"PiggyBank.sol": {
		"PiggyBank": {
			"abi": [
				{
					"inputs": [],
					"stateMutability": "nonpayable",
					"type": "constructor"
				},
				{
					"inputs": [],
					"name": "getBalance",
					"outputs": [
						{
							"internalType": "uint256",
							"name": "",
							"type": "uint256"
						}
					],
					"stateMutability": "view",
					"type": "function"
				},
				{
					"inputs": [],
					"name": "owner",
					"outputs": [
						{
							"internalType": "address",
							"name": "",
							"type": "address"
						}
					],
					"stateMutability": "view",
					"type": "function"
				},
				{
					"inputs": [],
					"name": "withdraw",
					"outputs": [],
					"stateMutability": "nonpayable",
					"type": "function"
				},
				{
					"stateMutability": "payable",
					"type": "receive"
				}
			],
			"devdoc": {
				"kind": "dev",
				"methods": {},
				"version": 1
			},
			"evm": {
				"assembly": "    /* \"PiggyBank.sol\":60:685  contract PiggyBank {... */\n  mstore(0x40, 0x80)\n    /* \"PiggyBank.sol\":162:213  constructor() {... */\n  callvalue\n  dup1\n  iszero\n  tag_1\n  jumpi\n  revert(0x00, 0x00)\ntag_1:\n  pop\n    /* \"PiggyBank.sol\":187:192  owner */\n  0x00\n    /* \"PiggyBank.sol\":187:205  owner = msg.sender */\n  dup1\n  sload\n  not(sub(shl(0xa0, 0x01), 0x01))\n  and\n    /* \"PiggyBank.sol\":195:205  msg.sender */\n  caller\n    /* \"PiggyBank.sol\":187:205  owner = msg.sender */\n  or\n  swap1\n  sstore\n    /* \"PiggyBank.sol\":60:685  contract PiggyBank {... */\n  dataSize(sub_0)\n  dup1\n  dataOffset(sub_0)\n  0x00\n  codecopy\n  0x00\n  return\nstop\n\nsub_0: assembly {\n        /* \"PiggyBank.sol\":60:685  contract PiggyBank {... */\n      mstore(0x40, 0x80)\n      jumpi(tag_1, lt(calldatasize, 0x04))\n      shr(0xe0, calldataload(0x00))\n      dup1\n      0x12065fe0\n      eq\n      tag_3\n      jumpi\n      dup1\n      0x3ccfd60b\n      eq\n      tag_4\n      jumpi\n      dup1\n      0x8da5cb5b\n      eq\n      tag_5\n      jumpi\n      revert(0x00, 0x00)\n    tag_1:\n      jumpi(tag_2, calldatasize)\n      stop\n    tag_2:\n      revert(0x00, 0x00)\n        /* \"PiggyBank.sol\":370:466  function getBalance() public view returns (uint) {... */\n    tag_3:\n      callvalue\n      dup1\n      iszero\n      tag_8\n      jumpi\n      revert(0x00, 0x00)\n    tag_8:\n      pop\n      mload(0x40)\n        /* \"PiggyBank.sol\":437:458  address(this).balance */\n      selfbalance\n        /* \"#utility.yul\":160:185   */\n      dup2\n      mstore\n        /* \"#utility.yul\":148:150   */\n      0x20\n        /* \"#utility.yul\":133:151   */\n      add\n        /* \"PiggyBank.sol\":370:466  function getBalance() public view returns (uint) {... */\n    tag_11:\n      mload(0x40)\n      dup1\n      swap2\n      sub\n      swap1\n      return\n        /* \"PiggyBank.sol\":520:682  function withdraw() public {... */\n    tag_4:\n      callvalue\n      dup1\n      iszero\n      tag_13\n      jumpi\n      revert(0x00, 0x00)\n    tag_13:\n      pop\n      tag_14\n      tag_15\n      jump\t// in\n    tag_14:\n      stop\n        /* \"PiggyBank.sol\":86:106  address public owner */\n    tag_5:\n      callvalue\n      dup1\n      iszero\n      tag_16\n      jumpi\n      revert(0x00, 0x00)\n    tag_16:\n      pop\n      sload(0x00)\n      tag_17\n      swap1\n      sub(shl(0xa0, 0x01), 0x01)\n      and\n      dup2\n      jump\n    tag_17:\n      mload(0x40)\n      sub(shl(0xa0, 0x01), 0x01)\n        /* \"#utility.yul\":360:392   */\n      swap1\n      swap2\n      and\n        /* \"#utility.yul\":342:393   */\n      dup2\n      mstore\n        /* \"#utility.yul\":330:332   */\n      0x20\n        /* \"#utility.yul\":315:333   */\n      add\n        /* \"PiggyBank.sol\":86:106  address public owner */\n      tag_11\n        /* \"#utility.yul\":196:399   */\n      jump\n        /* \"PiggyBank.sol\":520:682  function withdraw() public {... */\n    tag_15:\n        /* \"PiggyBank.sol\":580:585  owner */\n      and(sub(shl(0xa0, 0x01), 0x01), sload(0x00))\n        /* \"PiggyBank.sol\":566:576  msg.sender */\n      caller\n        /* \"PiggyBank.sol\":566:585  msg.sender == owner */\n      eq\n        /* \"PiggyBank.sol\":558:617  require(msg.sender == owner, \"Only the owner can withdraw\") */\n      tag_23\n      jumpi\n      mload(0x40)\n      shl(0xe5, 0x461bcd)\n      dup2\n      mstore\n        /* \"#utility.yul\":606:608   */\n      0x20\n        /* \"PiggyBank.sol\":558:617  require(msg.sender == owner, \"Only the owner can withdraw\") */\n      0x04\n      dup3\n      add\n        /* \"#utility.yul\":588:609   */\n      mstore\n        /* \"#utility.yul\":645:647   */\n      0x1b\n        /* \"#utility.yul\":625:643   */\n      0x24\n      dup3\n      add\n        /* \"#utility.yul\":618:648   */\n      mstore\n        /* \"#utility.yul\":684:713   */\n      0x4f6e6c7920746865206f776e65722063616e2077697468647261770000000000\n        /* \"#utility.yul\":664:682   */\n      0x44\n      dup3\n      add\n        /* \"#utility.yul\":657:714   */\n      mstore\n        /* \"#utility.yul\":731:749   */\n      0x64\n      add\n        /* \"PiggyBank.sol\":558:617  require(msg.sender == owner, \"Only the owner can withdraw\") */\n      mload(0x40)\n      dup1\n      swap2\n      sub\n      swap1\n      revert\n    tag_23:\n        /* \"PiggyBank.sol\":636:641  owner */\n      0x00\n      dup1\n      sload\n        /* \"PiggyBank.sol\":628:674  payable(owner).transfer(address(this).balance) */\n      mload(0x40)\n      sub(shl(0xa0, 0x01), 0x01)\n        /* \"PiggyBank.sol\":636:641  owner */\n      swap1\n      swap2\n      and\n      swap2\n        /* \"PiggyBank.sol\":652:673  address(this).balance */\n      selfbalance\n        /* \"PiggyBank.sol\":628:674  payable(owner).transfer(address(this).balance) */\n      dup1\n      iszero\n      0x08fc\n      mul\n      swap3\n        /* \"PiggyBank.sol\":652:673  address(this).balance */\n      swap1\n      swap2\n        /* \"PiggyBank.sol\":628:674  payable(owner).transfer(address(this).balance) */\n      dup2\n        /* \"PiggyBank.sol\":636:641  owner */\n      dup2\n        /* \"PiggyBank.sol\":628:674  payable(owner).transfer(address(this).balance) */\n      dup2\n        /* \"PiggyBank.sol\":652:673  address(this).balance */\n      dup6\n        /* \"PiggyBank.sol\":636:641  owner */\n      dup9\n        /* \"PiggyBank.sol\":628:674  payable(owner).transfer(address(this).balance) */\n      dup9\n      call\n      swap4\n      pop\n      pop\n      pop\n      pop\n      iszero\n      dup1\n      iszero\n      tag_27\n      jumpi\n      returndatacopy(0x00, 0x00, returndatasize)\n      revert(0x00, returndatasize)\n    tag_27:\n      pop\n        /* \"PiggyBank.sol\":520:682  function withdraw() public {... */\n      jump\t// out\n\n    auxdata: 0xa26469706673582212202ffc3282962f499e799d653f1af250c95625c1e2e777b82b49ed402e6c4be0a764736f6c634300081e0033\n}\n",
				"bytecode": {
					"linkReferences": {},
					"object": "6080604052348015600e575f5ffd5b505f80546001600160a01b031916331790556101798061002d5f395ff3fe608060405260043610610036575f3560e01c806312065fe0146100415780633ccfd60b146100605780638da5cb5b14610076575f5ffd5b3661003d57005b5f5ffd5b34801561004c575f5ffd5b506040514781526020015b60405180910390f35b34801561006b575f5ffd5b506100746100ac565b005b348015610081575f5ffd5b505f54610094906001600160a01b031681565b6040516001600160a01b039091168152602001610057565b5f546001600160a01b031633146101095760405162461bcd60e51b815260206004820152601b60248201527f4f6e6c7920746865206f776e65722063616e2077697468647261770000000000604482015260640160405180910390fd5b5f80546040516001600160a01b03909116914780156108fc02929091818181858888f19350505050158015610140573d5f5f3e3d5ffd5b5056fea26469706673582212202ffc3282962f499e799d653f1af250c95625c1e2e777b82b49ed402e6c4be0a764736f6c634300081e0033",
					"opcodes": "PUSH1 0x80 PUSH1 0x40 MSTORE CALLVALUE DUP1 ISZERO PUSH1 0xE JUMPI PUSH0 PUSH0 REVERT JUMPDEST POP PUSH0 DUP1 SLOAD PUSH1 0x1 PUSH1 0x1 PUSH1 0xA0 SHL SUB NOT AND CALLER OR SWAP1 SSTORE PUSH2 0x179 DUP1 PUSH2 0x2D PUSH0 CODECOPY PUSH0 RETURN INVALID PUSH1 0x80 PUSH1 0x40 MSTORE PUSH1 0x4 CALLDATASIZE LT PUSH2 0x36 JUMPI PUSH0 CALLDATALOAD PUSH1 0xE0 SHR DUP1 PUSH4 0x12065FE0 EQ PUSH2 0x41 JUMPI DUP1 PUSH4 0x3CCFD60B EQ PUSH2 0x60 JUMPI DUP1 PUSH4 0x8DA5CB5B EQ PUSH2 0x76 JUMPI PUSH0 PUSH0 REVERT JUMPDEST CALLDATASIZE PUSH2 0x3D JUMPI STOP JUMPDEST PUSH0 PUSH0 REVERT JUMPDEST CALLVALUE DUP1 ISZERO PUSH2 0x4C JUMPI PUSH0 PUSH0 REVERT JUMPDEST POP PUSH1 0x40 MLOAD SELFBALANCE DUP2 MSTORE PUSH1 0x20 ADD JUMPDEST PUSH1 0x40 MLOAD DUP1 SWAP2 SUB SWAP1 RETURN JUMPDEST CALLVALUE DUP1 ISZERO PUSH2 0x6B JUMPI PUSH0 PUSH0 REVERT JUMPDEST POP PUSH2 0x74 PUSH2 0xAC JUMP JUMPDEST STOP JUMPDEST CALLVALUE DUP1 ISZERO PUSH2 0x81 JUMPI PUSH0 PUSH0 REVERT JUMPDEST POP PUSH0 SLOAD PUSH2 0x94 SWAP1 PUSH1 0x1 PUSH1 0x1 PUSH1 0xA0 SHL SUB AND DUP2 JUMP JUMPDEST PUSH1 0x40 MLOAD PUSH1 0x1 PUSH1 0x1 PUSH1 0xA0 SHL SUB SWAP1 SWAP2 AND DUP2 MSTORE PUSH1 0x20 ADD PUSH2 0x57 JUMP JUMPDEST PUSH0 SLOAD PUSH1 0x1 PUSH1 0x1 PUSH1 0xA0 SHL SUB AND CALLER EQ PUSH2 0x109 JUMPI PUSH1 0x40 MLOAD PUSH3 0x461BCD PUSH1 0xE5 SHL DUP2 MSTORE PUSH1 0x20 PUSH1 0x4 DUP3 ADD MSTORE PUSH1 0x1B PUSH1 0x24 DUP3 ADD MSTORE PUSH32 0x4F6E6C7920746865206F776E65722063616E2077697468647261770000000000 PUSH1 0x44 DUP3 ADD MSTORE PUSH1 0x64 ADD PUSH1 0x40 MLOAD DUP1 SWAP2 SUB SWAP1 REVERT JUMPDEST PUSH0 DUP1 SLOAD PUSH1 0x40 MLOAD PUSH1 0x1 PUSH1 0x1 PUSH1 0xA0 SHL SUB SWAP1 SWAP2 AND SWAP2 SELFBALANCE DUP1 ISZERO PUSH2 0x8FC MUL SWAP3 SWAP1 SWAP2 DUP2 DUP2 DUP2 DUP6 DUP9 DUP9 CALL SWAP4 POP POP POP POP ISZERO DUP1 ISZERO PUSH2 0x140 JUMPI RETURNDATASIZE PUSH0 PUSH0 RETURNDATACOPY RETURNDATASIZE PUSH0 REVERT JUMPDEST POP JUMP INVALID LOG2 PUSH5 0x6970667358 0x22 SLT KECCAK256 0x2F 0xFC ORIGIN DUP3 SWAP7 0x2F BLOBHASH SWAP15 PUSH26 0x9D653F1AF250C95625C1E2E777B82B49ED402E6C4BE0A764736F PUSH13 0x634300081E0033000000000000 "
				},
				"gasEstimates": {
					"creation": {
						"codeDepositCost": "75400",
						"executionCost": "24355",
						"totalCost": "99755"
					},
					"external": {
						"getBalance()": "145",
						"owner()": "2357",
						"withdraw()": "infinite"
					}
				},
				"methodIdentifiers": {
					"getBalance()": "12065fe0",
					"owner()": "8da5cb5b",
					"withdraw()": "3ccfd60b"
				}
			},
			"storageLayout": {
				"storage": [
					{
						"astId": 3,
						"contract": "PiggyBank.sol:PiggyBank",
						"label": "owner",
						"offset": 0,
						"slot": "0",
						"type": "t_address"
					}
				],
				"types": {
					"t_address": {
						"encoding": "inplace",
						"label": "address",
						"numberOfBytes": "20"
					}
				}
			},
			"userdoc": {
				"kind": "user",
				"methods": {},
				"version": 1
			}
		}
	}
}